{
  "_format": "hh-sol-artifact-1",
  "contractName": "CrossChainSwapper",
  "sourceName": "contracts/CrossChainSwapper.sol",
  "abi": [
    {
      "inputs": [
        {
          "internalType": "address",
          "name": "_routerAddress",
          "type": "address"
        }
      ],
      "stateMutability": "nonpayable",
      "type": "constructor"
    },
    {
      "anonymous": false,
      "inputs": [
        {
          "indexed": true,
          "internalType": "bytes32",
          "name": "requestId",
          "type": "bytes32"
        },
        {
          "indexed": true,
          "internalType": "address",
          "name": "initiator",
          "type": "address"
        },
        {
          "indexed": false,
          "internalType": "address",
          "name": "tokenIn",
          "type": "address"
        },
        {
          "indexed": false,
          "internalType": "address",
          "name": "tokenOut",
          "type": "address"
        },
        {
          "indexed": false,
          "internalType": "uint256",
          "name": "amountIn",
          "type": "uint256"
        },
        {
          "indexed": false,
          "internalType": "uint256",
          "name": "amountOut",
          "type": "uint256"
        },
        {
          "indexed": false,
          "internalType": "uint256",
          "name": "solverFee",
          "type": "uint256"
        },
        {
          "indexed": false,
          "internalType": "uint256",
          "name": "destinationChainId",
          "type": "uint256"
        },
        {
          "indexed": false,
          "internalType": "address",
          "name": "recipient",
          "type": "address"
        }
      ],
      "name": "SwapInitiated",
      "type": "event"
    },
    {
      "inputs": [
        {
          "internalType": "bytes32",
          "name": "requestId",
          "type": "bytes32"
        }
      ],
      "name": "getSwapStatus",
      "outputs": [
        {
          "components": [
            {
              "internalType": "address",
              "name": "sender",
              "type": "address"
            },
            {
              "internalType": "address",
              "name": "recipient",
              "type": "address"
            },
            {
              "internalType": "address",
              "name": "tokenIn",
              "type": "address"
            },
            {
              "internalType": "address",
              "name": "tokenOut",
              "type": "address"
            },
            {
              "internalType": "uint256",
              "name": "amountIn",
              "type": "uint256"
            },
            {
              "internalType": "uint256",
              "name": "amountOut",
              "type": "uint256"
            },
            {
              "internalType": "uint256",
              "name": "srcChainId",
              "type": "uint256"
            },
            {
              "internalType": "uint256",
              "name": "dstChainId",
              "type": "uint256"
            },
            {
              "internalType": "uint256",
              "name": "verificationFee",
              "type": "uint256"
            },
            {
              "internalType": "uint256",
              "name": "solverFee",
              "type": "uint256"
            },
            {
              "internalType": "uint256",
              "name": "nonce",
              "type": "uint256"
            },
            {
              "internalType": "bool",
              "name": "executed",
              "type": "bool"
            },
            {
              "internalType": "uint256",
              "name": "requestedAt",
              "type": "uint256"
            },
            {
              "components": [
                {
                  "internalType": "address",
                  "name": "target",
                  "type": "address"
                },
                {
                  "internalType": "bytes",
                  "name": "callData",
                  "type": "bytes"
                },
                {
                  "internalType": "uint256",
                  "name": "gasLimit",
                  "type": "uint256"
                }
              ],
              "internalType": "struct Hook[]",
              "name": "preHooks",
              "type": "tuple[]"
            },
            {
              "components": [
                {
                  "internalType": "address",
                  "name": "target",
                  "type": "address"
                },
                {
                  "internalType": "bytes",
                  "name": "callData",
                  "type": "bytes"
                },
                {
                  "internalType": "uint256",
                  "name": "gasLimit",
                  "type": "uint256"
                }
              ],
              "internalType": "struct Hook[]",
              "name": "postHooks",
              "type": "tuple[]"
            }
          ],
          "internalType": "struct IRouter.SwapRequestParametersWithHooks",
          "name": "params",
          "type": "tuple"
        }
      ],
      "stateMutability": "view",
      "type": "function"
    },
    {
      "inputs": [
        {
          "internalType": "address",
          "name": "tokenIn",
          "type": "address"
        },
        {
          "internalType": "address",
          "name": "tokenOut",
          "type": "address"
        },
        {
          "internalType": "uint256",
          "name": "amountIn",
          "type": "uint256"
        },
        {
          "internalType": "uint256",
          "name": "amountOut",
          "type": "uint256"
        },
        {
          "internalType": "uint256",
          "name": "solverFee",
          "type": "uint256"
        },
        {
          "internalType": "uint256",
          "name": "destinationChainId",
          "type": "uint256"
        },
        {
          "internalType": "address",
          "name": "recipient",
          "type": "address"
        }
      ],
      "name": "initiateSwap",
      "outputs": [
        {
          "internalType": "bytes32",
          "name": "requestId",
          "type": "bytes32"
        }
      ],
      "stateMutability": "nonpayable",
      "type": "function"
    },
    {
      "inputs": [
        {
          "internalType": "bytes32",
          "name": "requestId",
          "type": "bytes32"
        }
      ],
      "name": "isSwapExecuted",
      "outputs": [
        {
          "internalType": "bool",
          "name": "executed",
          "type": "bool"
        }
      ],
      "stateMutability": "view",
      "type": "function"
    },
    {
      "inputs": [],
      "name": "router",
      "outputs": [
        {
          "internalType": "contract IRouter",
          "name": "",
          "type": "address"
        }
      ],
      "stateMutability": "view",
      "type": "function"
    }
  ],
  "bytecode": "0x60a060405234801561001057600080fd5b50604051610e73380380610e7383398101604081905261002f9161009a565b6001600160a01b0381166100895760405162461bcd60e51b815260206004820152601660248201527f496e76616c696420726f75746572206164647265737300000000000000000000604482015260640160405180910390fd5b6001600160a01b03166080526100ca565b6000602082840312156100ac57600080fd5b81516001600160a01b03811681146100c357600080fd5b9392505050565b608051610d736101006000396000818160c3015281816101b2015281816102520152818161051701526105e80152610d736000f3fe608060405234801561001057600080fd5b506004361061004c5760003560e01c80634c00057514610051578063d17ac85a1461007a578063da474b431461009d578063f887ea40146100be575b600080fd5b61006461005f3660046106c8565b6100fd565b60405161007191906107a6565b60405180910390f35b61008d6100883660046106c8565b61022f565b6040519015158152602001610071565b6100b06100ab3660046108d3565b6102cd565b604051908152602001610071565b6100e57f000000000000000000000000000000000000000000000000000000000000000081565b6040516001600160a01b039091168152602001610071565b61019c604051806101e0016040528060006001600160a01b0316815260200160006001600160a01b0316815260200160006001600160a01b0316815260200160006001600160a01b03168152602001600081526020016000815260200160008152602001600081526020016000815260200160008152602001600081526020016000151581526020016000815260200160608152602001606081525090565b604051633475bf8f60e01b8152600481018390527f00000000000000000000000000000000000000000000000000000000000000006001600160a01b031690633475bf8f90602401600060405180830381865afa158015610201573d6000803e3d6000fd5b505050506040513d6000823e601f3d908101601f191682016040526102299190810190610b57565b92915050565b604051633475bf8f60e01b81526004810182905260009081906001600160a01b037f00000000000000000000000000000000000000000000000000000000000000001690633475bf8f90602401600060405180830381865afa158015610299573d6000803e3d6000fd5b505050506040513d6000823e601f3d908101601f191682016040526102c19190810190610b57565b61016001519392505050565b60008086116103235760405162461bcd60e51b815260206004820181905260248201527f416d6f756e74206d7573742062652067726561746572207468616e207a65726f60448201526064015b60405180910390fd5b6000841161037f5760405162461bcd60e51b8152602060048201526024808201527f536f6c76657220666565206d7573742062652067726561746572207468616e206044820152637a65726f60e01b606482015260840161031a565b6001600160a01b0382166103d55760405162461bcd60e51b815260206004820152601960248201527f496e76616c696420726563697069656e74206164647265737300000000000000604482015260640161031a565b4683036104245760405162461bcd60e51b815260206004820152601960248201527f43616e6e6f74207377617020746f2073616d6520636861696e00000000000000604482015260640161031a565b60006104308588610ca4565b6040516323b872dd60e01b8152336004820152306024820152604481018290529091506001600160a01b038a16906323b872dd906064016020604051808303816000875af1158015610486573d6000803e3d6000fd5b505050506040513d601f19601f820116820180604052508101906104aa9190610cc5565b6105005760405162461bcd60e51b815260206004820152602160248201527f5472616e73666572206661696c6564202d20636865636b20616c6c6f77616e636044820152606560f81b606482015260840161031a565b60405163095ea7b360e01b81526001600160a01b037f000000000000000000000000000000000000000000000000000000000000000081166004830152602482018390528a169063095ea7b3906044016020604051808303816000875af115801561056f573d6000803e3d6000fd5b505050506040513d601f19601f820116820180604052508101906105939190610cc5565b6105d15760405162461bcd60e51b815260206004820152600f60248201526e105c1c1c9bdd985b0819985a5b1959608a1b604482015260640161031a565b60405163034c148b60e31b81526001600160a01b037f00000000000000000000000000000000000000000000000000000000000000001690631a60a45890610629908c908c908c908c908c908c908c90600401610ce7565b6020604051808303816000875af1158015610648573d6000803e3d6000fd5b505050506040513d601f19601f8201168201806040525081019061066c9190610d24565b9150336001600160a01b0316827f166fbd9e311e249ac893229fc2ee35771917047405afe62c59dfef17e68dca888b8b8b8b8b8b8b6040516106b49796959493929190610ce7565b60405180910390a350979650505050505050565b6000602082840312156106da57600080fd5b5035919050565b60005b838110156106fc5781810151838201526020016106e4565b50506000910152565b600082825180855260208501945060208160051b8301016020850160005b8381101561079a57601f19858403018852815160018060a01b03815116845260208101516060602086015280518060608701526107678160808801602085016106e1565b604083015160408701526080601f19601f8301168701019550505050602082019150602088019750600181019050610723565b50909695505050505050565b602081526107c06020820183516001600160a01b03169052565b600060208301516107dc60408401826001600160a01b03169052565b5060408301516001600160a01b03811660608401525060608301516001600160a01b038116608084015250608083015160a083015260a083015160c083015260c083015160e083015260e083015161010083015261010083015161012083015261012083015161014083015261014083015161016083015261016083015161086961018084018215159052565b506101808301516101a08301526101a08301516101e06101c0840152610893610200840182610705565b90506101c0840151601f19848303016101e08501526108b28282610705565b95945050505050565b6001600160a01b03811681146108d057600080fd5b50565b600080600080600080600060e0888a0312156108ee57600080fd5b87356108f9816108bb565b96506020880135610909816108bb565b955060408801359450606088013593506080880135925060a0880135915060c0880135610935816108bb565b8091505092959891949750929550565b634e487b7160e01b600052604160045260246000fd5b6040516060810167ffffffffffffffff8111828210171561097e5761097e610945565b60405290565b6040516101e0810167ffffffffffffffff8111828210171561097e5761097e610945565b604051601f8201601f1916810167ffffffffffffffff811182821017156109d1576109d1610945565b604052919050565b80516109e4816108bb565b919050565b805180151581146109e457600080fd5b600082601f830112610a0a57600080fd5b815167ffffffffffffffff811115610a2457610a24610945565b8060051b610a34602082016109a8565b91825260208185018101929081019086841115610a5057600080fd5b6020860192505b83831015610b4d57825167ffffffffffffffff811115610a7657600080fd5b86016060818903601f19011215610a8c57600080fd5b610a9461095b565b6020820151610aa2816108bb565b8152604082015167ffffffffffffffff811115610abe57600080fd5b82016020810190603f018a13610ad357600080fd5b805167ffffffffffffffff811115610aed57610aed610945565b610b00601f8201601f19166020016109a8565b8181528b6020838501011115610b1557600080fd5b610b268260208301602086016106e1565b60208481019190915260609490940151604084015250508352928301929190910190610a57565b9695505050505050565b600060208284031215610b6957600080fd5b815167ffffffffffffffff811115610b8057600080fd5b82016101e08185031215610b9357600080fd5b610b9b610984565b610ba4826109d9565b8152610bb2602083016109d9565b6020820152610bc3604083016109d9565b6040820152610bd4606083016109d9565b60608201526080828101519082015260a0808301519082015260c0808301519082015260e08083015190820152610100808301519082015261012080830151908201526101408083015190820152610c2f61016083016109e9565b61016082015261018082810151908201526101a082015167ffffffffffffffff811115610c5b57600080fd5b610c67868285016109f9565b6101a0830152506101c082015167ffffffffffffffff811115610c8957600080fd5b610c95868285016109f9565b6101c083015250949350505050565b8082018082111561022957634e487b7160e01b600052601160045260246000fd5b600060208284031215610cd757600080fd5b610ce0826109e9565b9392505050565b6001600160a01b039788168152958716602087015260408601949094526060850192909252608084015260a083015290911660c082015260e00190565b600060208284031215610d3657600080fd5b505191905056fea26469706673582212207a3e71595de5415729b79978e3cf7f517a9d6cde1b6dd589e63ca9bcc832180d64736f6c634300081c0033",
  "linkReferences": {},
  "deployedLinkReferences": {}
}